:1000000000800020BD0100005D28000029280000BC
:10001000292800002928000029280000292800009C
:100020002928000029280000292800005D28000058
:100030005D280000292800005D2800001928000024
:100040005D2800005D2800005D2800005D2800009C
:100050005D2800005D2800005D2800005D2800008C
:100060005D2800005D2800005D2800005D2800007C
:100070005D2800005D2800005D2800005D2800006C
:100080005D2800005D2800005D2800005D2800005C
:100090005D2800005D2800005D2800005D2800004C
:1000A0005D2800005D2800005D2800005D2800003C
:1000B0005D2800005D2800005D2800005D2800002C
:1000C0005D2800005D2800005D2800005D2800001C
:1000D0005D2800005D2800005D2800005D2800000C
:1000E0005D2800005D2800005D2800005D280000FC
:1000F0005D280000392E00005D280000F534000066
:100100005D280000F53900005D2800005D28000032
:100110005D2800005D2800005D2800005D280000CB
:100120005D2800005D2800005D2800005D280000BB
:100130005D2800005D2800005D2800005D280000AB
:100140005D2800005D2800005D2800005D2800009B
:100150005D2800005D2800005D2800005D2800008B
:100160005D280000191A00005D2800005D280000CD
:100170005D2800005D2800005D2800005D2800006B
:100180005D2800005D2800005D2800005D2800005B
:100190005D2800005D2800005D2800005D2800004B
:1001A0005D2800005D2800005D2800005D2800003B
:1001B0005D2800005D2800005D280000564B4CF2D1
:1001C000205210B51A804DF628121A8000BF00BFC9
:1001D00002F048FB514B4FF010621A60504A9A608F
:1001E000504ADA60A3F53043203B1A6812F480725B
:1001F00004D14D490A604FF4A8521A604B4B1A784B
:10020000110703D51A7842F008021A70484B2A22C7
:100210001A700023474A48499818884204D247492F
:10022000595899500433F5E7454A464B9A424FF0E6
:10023000000302D242F8043BF7E74349434A5958C6
:1002400099500433B3F5DE7FF7D1414B802103F899
:10025000011B40498B42F9D13F4B1A603F4B8A2228
:100260001A70A3F5805324225A70A0221A709A792A
:100270009207FCD59A79D406FCD4394B9A7902F0CE
:100280000C02082AF9D105221A7143225A719A796F
:100290009006FCD5324B9A795106FBD5314A4FF086
:1002A000817111600521516020221A702C4B9B79BD
:1002B00003F00C030C2BF9D12B4B2C4A1A602C4B5E
:1002C0002C4A1A6000225A60072243F8042C2A4A5A
:1002D000C3F80C2D62B601F085FA134B1B68DA07E0
:1002E00005D5264801F0F6F8254B264A1A60264B1C
:1002F0001B785B0609D5224C224A2368934204D11D
:100300001E4801F0E7F80023236005F051FD02F0DC
:10031000AFFA01F03DF8FEE70E20054030800440C2
:10032000823F04000100002B14D0034002D007409C
:1003300000E007406087FF1F7888FF1FB865000056
:100340007888FF1F8495FF1F000000000082FF1FB8
:1003500000E400E05FE400E008ED00E0005006404B
:10036000004006404480044004800440C010050062
:1003700014E000E03F19010000002020C0FEB75843
:100380001CE00340A5C3945A00F00740FFFFFFFFA5
:10039000FFFFFFFFFFFFFFFFFFFFFFFFFFFFFFFF6D
:1003A000FFFFFFFFFFFFFFFFFFFFFFFFFFFFFFFF5D
:1003B000FFFFFFFFFFFFFFFFFFFFFFFFFFFFFFFF4D
:1003C000FFFFFFFFFFFFFFFFFFFFFFFFFFFFFFFF3D
:1003D000FFFFFFFFFFFFFFFFFFFFFFFFFFFFFFFF2D
:1003E000FFFFFFFFFFFFFFFFFFFFFFFFFFFFFFFF1D
:1003F000FFFFFFFFFFFFFFFFFFFFFFFFFFFFFFFF0D
:10040000FFFFFFFFFFFFFFFFFFFFFFFFDEF9FFFF23
:1004100010B5054C237833B9044B13B10448AFF33E
:1004200000800123237010BD7888FF1F00000000AA
:10043000B865000008B5064B1BB106480649AFF386
:1004400000800648036813B1054B03B1984708BD07
:1004500000000000B86500007C88FF1F7888FF1F3F
:100460000000000043680B7043681B0A4B70C38890
:100470008B70C379CB7083680B7183681B0A4B71D7
:1004800043898B71C37ACB71082070470B78436026
:100490004A7843EA022343608A7843EA024343608E
:1004A000CA7843EA026343600B7983604A7943EA7E
:1004B000022383608A7943EA02438360CA7943EA6C
:1004C000026383600820704700487047C0600000E6
:1004D00000487047CE60000000487047EF600000A1
:1004E000004870470861000000487047296100001B
:1004F000004870473C61000000487047716200008E
:10050000004870475D6100002DE9F74F8C4601906F
:10051000D0E90201040E44EA01244FEA1028060C37
:100520008CF8034048EA01684FEA112946EA01467F
:100530000F0C0D0E019C8CF801808CF802608CF879
:1005400005908CF806708CF807508CF800008CF839
:100550000410D4E90401040E44EA01244FEA1028EF
:10056000060C48EA01684FEA112946EA01460F0CD9
:100570000D0E8CF80B40019C8CF809808CF80A60F9
:100580008CF80D908CF80E708CF80F508CF80800D9
:100590008CF80C10D4E906014FEA1028060C040E62
:1005A0008CF8100048EA01684FEA112946EA014632
:1005B0000F0C44EA01240D0E18208CF811808CF8E1
:1005C00012608CF813408CF814108CF815908CF88D
:1005D00016708CF8175003B0BDE8F08F2DE9F0438A
:1005E0004A788E7891F805800025002314022B4369
:1005F000320400270E7822431F43CC7800231F4388
:100600000B794FEA0825164391F806802206164317
:100610001F43002216432F434FEA084591F80780F5
:10062000164316432F434FEA086542EA06043D434A
:10063000C0E902454C7A91F80A8026024FEA084444
:1006400091F80880264346EA080691F80B804FEAA5
:1006500008643443144342EA02074FF000094E7B1A
:1006600047EA090742EA040891F80C908C7B42EAB9
:10067000070545EA090527044FEA0629CC7B49EA24
:10068000050948EA020849EA0709270642EA080676
:1006900047EA0907C0E904674C7C91F812802602FA
:1006A0004FEA084491F81080264346EA080691F87C
:1006B00013804FEA08643443144342EA02074FF0C0
:1006C00000094E7D47EA090742EA040891F81490B0
:1006D0008C7D42EA070545EA090527044FEA062909
:1006E000CC7D49EA050949EA070948EA02082706D4
:1006F00042EA080647EA0907C0E906671820BDE88C
:10070000F083FFFF004870477E610000004870479B
:100710009461000070B5054608300E46FFF7F4FE00
:100720000446311905F12800FFF7EEFE204470BDA4
:1007300070B5054608300E46FFF750FF04463119E4
:1007400005F12800FFF74AFF204470BD00487047BC
:10075000B561000000487047C961000043680B7034
:100760001A0A4A701A0C1B0E8A70CB7083680B71C0
:100770001A0A4A711A0C1B0E8A71CB71C3680B726C
:100780001A0A4A721A0C1B0E8A72CB720C2070471E
:100790008B784A781B0443EA02230A781343CA7809
:1007A00043EA026343608B794A791B0443EA0223DC
:1007B0000A791343CA7943EA026383608B7A4A7ADF
:1007C0001B0443EA02230A7A1343CA7A43EA026308
:1007D000C3600C207047FFFF00487047EA610000CB
:1007E00000487047F8610000D0E904230849C1E9D6
:1007F0000023D0E910230749C1E90023064B82B04A
:100800001B680193019A054B1A6002B0704700BF44
:100810007891FF1F5892FF1FA092FF1F2491FF1F86
:1008200090F85408704738B5054600F10C0420468E
:10083000FFF7AEFFEB692046984738BD006A704766
:1008400000487047EA61000000487047F861000006
:1008500038B5054600F110042046FFF769FFAB6D7F
:100860002046984738BDC06D7047FFFF004870476D
:10087000B561000000487047C96100002DE9FF41E3
:1008800083880B7083881B0A4B70054680680C4672
:1008900005F0BEFA04AB064643F80C0D1868C4F820
:1008A0000200A9683246A01D00F07AFDE86805F054
:1008B000AFFA04AB06F1060843F8080D07461868BE
:1008C00044F808000A36E9683A46A01900F068FDC5
:1008D000286905F09DFA04AB3E4443F8040D074631
:1008E0001868A0510436A0193A46296900F058FD4D
:1008F000F0196B69235404441A0A627004301A0C0C
:100900001B0EA270E37004B0BDE8F0817FB50A78D9
:1009100082800346487842EA00229A80D1F8020099
:10092000019001988A1D841D551AA54204D212F81F
:10093000015B02F8025CF7E70844002242714A1D9D
:100940009A6008590290201D029C02460444A2426B
:1009500005D28D188E5C05F8016C0132F7E70A1993
:1009600001380844002502F8015CD8601068039043
:100970000398043420442246824205D28D188E5CAE
:1009800005F8016C0132F7E70A18013C0C44002518
:1009900002F8015C1C6195785478D2782D0445EA00
:1009A00004250C5C45EA040141EA026204305A6104
:1009B00004B070BD73B503790B70054680680E46B0
:1009C00005F026FA02AB044643F8040D1868C6F891
:1009D0000100A968701D224600F0E2FC601D02B013
:1009E00070BD37B50B46024613F8010B107118683D
:1009F0000190019C4B1D601D5D1A854204D213F8C5
:100A0000015B03F8025CF7E70C4400230431237117
:100A1000916003B030BD2DE9F74303790B700023DB
:100A200005460C464B708B70CB700A1D28795E1CF6
:100A3000DBB29842C4EB020102F104020FD9E9686B
:100A400051F8233002F8043C190A02F8031C190C6F
:100A50001B0E02F8013C02F8021C3346E6E72B7C31
:100A60006354631800225A709A70DA700B1D234485
:100A7000297C501CD2B29142C4EB030603F104035B
:100A80000FD9A96951F8222003F8042C110A03F8A0
:100A9000031C110C120E03F8012C03F8021C024671
:100AA000E6E72B7FA355A2190023537093700436F9
:100AB000D3702A7F5FFA83F8424503F1010915D903
:100AC0006B6A53F8280005F0A3F902AB074643F818
:100AD000040D1868A0516B6A0436A01953F8281049
:100AE0003A4600F05DFC3E444B46E2E7304603B038
:100AF000BDE8F083F7B50E780379B34204460D469E
:100B000004D2C068B10005F079F9E06026712A1DB1
:100B100000212379481CC9B28B42C5EB020702F1C0
:100B2000040214D912F8023C12F8036C1B0443EAC5
:100B3000062312F8046C334312F8016C43EA06638F
:100B4000A360E368A66843F821600146E1E7EE5D33
:100B5000237CB34204D2A069B10005F04FF9A06133
:100B60003B1D26742B440022217C501CD2B29142A2
:100B7000C5EB030703F1040314D913F8021C13F89F
:100B8000036C090441EA062113F8046C314313F89D
:100B9000016C41EA06616161A169666941F8226000
:100BA0000246E1E7EE5D237FB34204D2606AB10002
:100BB00005F024F960623B1D26770022217FD6B222
:100BC000B1421CD9E85801900199181D014403460F
:100BD0008B4206D2EF1815F803C007F801CC013399
:100BE000F6E76B180027013803F8017C28442062DF
:100BF0000B46616A206A41F826000132DEE718469A
:100C000003B0F0BD10B5044606486168E268A36809
:100C100003F030FF6168E268A3680348BDE8104054
:100C200003F028BF4891FF1F8091FF1FFFFFFFFFC8
:100C300030B51F4B87B0D3E9000103F08BFB1D4B90
:100C40000446D3E9000103F085FB22461A4C0090CC
:100C5000002302A8194903F05BFE20682D2590FBB4
:100C6000F5F003F0D7F810A3D3E9002303F038F927
:100C700003F048FB01462046114C03F0B9FE206802
:100C800090FBF5F003F0C6F807A3D3E9002303F0C7
:100C900027F903F037FB0146204607B0BDE8304096
:100CA00003F0A6BEAFF300800000000000E06F403C
:100CB0007891FF1F5892FF1F3892FF1F6092FF1F0D
:100CC0002891FF1FAFF30080044900220023C1E9EF
:100CD00000230349C1E90023704700BF7891FF1F3B
:100CE0005892FF1F1FB5094B0193002302930393F2
:100CF00003680A211B6801AA04469847044B1B6835
:100D00000093009BE36004B010BD00BFD85F0000FB
:100D1000A092FF1FF0B587B02C4B009300222C4B04
:100D2000ADF804200446029303930493059200F166
:100D300014060546D5F81838DBB158689A68ADF83E
:100D400004201A68036802929B689847D5F81838FF
:100D5000039058680368DB6898474FF48063226803
:100D60000593D5F8183804901768196920466A4623
:100D7000B8470435B542DDD12546D5F82C08E0B199
:100D80004368ADF804308368029303689B68984712
:100D90000390D5F82C080368DB6898474FF480630C
:100DA00004900593D5F82C0823681F6803685B68D6
:100DB00098476A4601462046B8470435B542DCD11B
:100DC000012384F8543807B0F0BD00BFF05F000085
:100DD00064620000F0B587B01C4D1D4B03930023E7
:100DE000049305932B680093009EC368044603A8F0
:100DF000F61AFFF74BFB4FF47A73049F0599B6FB85
:100E0000F3F2174403FB1266124A049702FB06161C
:100E10002968019101980596B0FBF3F103FB1103DA
:100E20006FEA010E0C4902FB131277441644276146
:100E3000666104F1100004F1140103F01FFE2B6839
:100E40000293029BC4F85C3807B0F0BDA092FF1F6C
:100E5000D85F000040420F0000CA9A3B73B5794E3C
:100E600033680093009DD0F85C3842F6F822EB1A04
:100E7000934284BF002380F85438D0F840380446A9
:100E800033B1D0F860389D4202D90023C4F840380D
:100E900060680368DB6898470028C0F2C180D4F816
:100EA0005028D4F840380244072BC4F850280CD1FD
:100EB000D4F84C385A1C2344C4F84C281876D4F87B
:100EC0004438013BC4F844385EE0A3B9FF2807D199
:100ED0000123C4F8403805F11403C4F86038D7E79B
:100EE00032680192019A521B052AD1D984F85438EC
:100EF0006FF00100A4E0012B0ED1FE2801D10223E6
:100F0000C4E70023C4F8403894F85438002BBFD10C
:100F10002046FFF7E7FEBBE7022B06D10023C4F80B
:100F20004C38C4F8440803231CE0032B07D1D4F841
:100F3000443803EB0020C4F844080423A6E7042B3C
:100F40000BD1414B1340002B03DA013B63F0FF034D
:100F50000133FF2B99D1052398E7052B07D1C4F85E
:100F600048080623C4F84038C4F8500890E7062B18
:100F70000ED1D4F8483803EB00200723C4F84038DA
:100F8000D4F84438C4F84808002B81D108237DE701
:100F9000082B7FF47DAF0023C4F840382A4B134060
:100FA000002B03DA013B63F0FF030133FF2B7FF4D7
:100FB0006FAFD4F8483863B92046FFF793FE204658
:100FC000FFF7A8FEC4F85858C4F85C584FF0FF303B
:100FD00036E00A2B05D1204604F11801FFF7FAFE8E
:100FE00056E7062B09D104F6680004F11801FFF753
:100FF00081FD012384F864384AE70B2B03D10023D9
:1010000084F8543844E704EB8303D3F89C060028A3
:101010003FF43EAF036804F118011B68984737E7B7
:1010200094F8540860B1D4F8583840F6C412EB1A5A
:10103000934204D92046FFF755FEC4F858580020C3
:1010400002B070BDA092FF1FFF00008030B5104CB1
:10105000104D236885B00193019A2B68D31A632B36
:1010600005D9FFF7E5FD23680293029B2B602368F7
:101070000393094B039A1B68D31AB3F5C87F01D3B6
:10108000FFF722FE0548FFF7E9FE05B030BD00BFBF
:10109000A092FF1FB091FF1F2491FF1F9488FF1F94
:1010A0001FB5064B019303688DF8081003921B6867
:1010B000072101AA984705B05DF804FB086000000D
:1010C000204A00234FF4614110B5C2F84038C2F8FD
:1010D0004438C2F84C38C2F848389160144604EBE2
:1010E0008302D2F82C2842B91649174A01EB830132
:1010F0006433C1F82C28536002E00133052BEED194
:10110000002304EB8302D2F82C2842B90D490F4A80
:1011100001EB83016433C1F82C28536002E00133F2
:10112000052BEED194F85438064813B9FFF796FE14
:10113000F8E70121064AFFF7B3FF0520BDE810409C
:1011400000F03ABB9488FF1FB491FF1FD891FF1F96
:101150001962000063292DE9F04104460D4603DDC4
:1011600090F85468002E48D0136810461B6804F2AB
:101170001F419847FF2283B284F81824FE22C0B290
:1011800084F819241A0A84F81B240244D24384F8F0
:101190001D5445F3072584F81C2484F81A0484F8A8
:1011A0001E5405220021981D904205DBA018013233
:1011B00090F818040144F6E703F108070733BFB2BB
:1011C00014FA83F3C943B7F5806F83F818140DD868
:1011D00004F583683E460025BD420EDA606818F8C3
:1011E000051003681B6898470135F5E72046032181
:1011F000034AFFF755FF4FF0FF363046BDE8F08158
:101200002C62000037B50123152114224648474DB2
:1012100003F0D6FB052108220623454803F0D0FB46
:10122000082300932D21434A434B44484FF07C54FC
:1012300003F03EFB4249434A434B00950194434827
:1012400003F00FFC3E493F4A3F4B00950194404854
:1012500003F007FC3F4B404A1A60404A5A604FF483
:1012600061429A603E49C3F86818002283F8542806
:1012700083F86C28C3F8742883F87828C3F880288A
:1012800083F88428C3F88C28C3F81828C3F81C28CE
:10129000C3F82028C3F82428C3F82828C3F82C282A
:1012A000C3F83028C3F83428C3F83828C3F83C28DA
:1012B000981801320021B2F5806F0176F8D10A4604
:1012C000991801320020B2F5806F81F81804F7D127
:1012D0002449254B0B60254B0B6100220023C1E9FB
:1012E0000823C1E90A23C1E90C23C1E91023C1E99C
:1012F0001223C1E914231E4B8B651E4B8B601E4BC2
:101300001E4A1A601E4ADA6000221A615A619A6106
:101310001C4A1D48DA611D4A886188630120C8653E
:1013200018629A6003B030BD3892FF1F9A99993EB7
:101330002891FF1F9A99193EF628DC3E6092FF1F04
:1013400000007FC300007F439A99193F4891FF1F17
:101350008091FF1F9488FF1F806000008893FF1F0B
:1013600020600000D891FF1F9860000050600000CE
:10137000E907000065620000B491FF1FB060000043
:1013800068600000050C0000386000006D6200001D
:1013900008B5FFF795FEFFF759FE01F009F8FAE7E7
:1013A000844641EA000313F003036DD1403A41D370
:1013B00051F8043B40F8043B51F8043B40F8043B2F
:1013C00051F8043B40F8043B51F8043B40F8043B1F
:1013D00051F8043B40F8043B51F8043B40F8043B0F
:1013E00051F8043B40F8043B51F8043B40F8043BFF
:1013F00051F8043B40F8043B51F8043B40F8043BEF
:1014000051F8043B40F8043B51F8043B40F8043BDE
:1014100051F8043B40F8043B51F8043B40F8043BCE
:1014200051F8043B40F8043B51F8043B40F8043BBE
:10143000403ABDD2303211D351F8043B40F8043B5E
:1014400051F8043B40F8043B51F8043B40F8043B9E
:1014500051F8043B40F8043B103AEDD20C3205D36E
:1014600051F8043B40F8043B043AF9D2043208D066
:10147000D2071CBF11F8013B00F8013B01D30B88D8
:1014800003806046704700BF082A13D38B078DD0B6
:1014900010F003038AD0C3F10403D21ADB071CBF88
:1014A00011F8013B00F8013B80D331F8023B20F8F2
:1014B000023B7BE7043AD9D3013A11F8013B00F82B
:1014C000013BF9D20B7803704B7843708B788370B3
:1014D00060467047044B054900221A600A60044ABE
:1014E000106010221A60704714D0034004D00340EB
:1014F00000D00340212810B518D80D4A52F83030DA
:1015000093F880423CB1012211B183F8802010BDD4
:1015100083F8002110BD02EBC00043681A6811B1C6
:1015200042F0030201E022F002021A6010BD00BF87
:1015300090620000212810B537D81C4A02EBC00386
:1015400001295B68144601D004290FD154F83020DA
:10155000012082F880024FF4A2721A601A680429EE
:101560000CBF42F0200222F020021DE052F8302091
:10157000002082F8800211B18A1E012A12D84FF48D
:10158000807202291A6003D11A6842F003020BE04C
:1015900003290AD11A6842F002021A601A6822F07E
:1015A000010201E040F203121A6010BD90620000D7
:1015B000282838B5604A04460B4611D112780B2A08
:1015C00004D8C2F10C0201FA02F304E00C2A1CBF99
:1015D0000C3A41FA02F31846BDE8384001F002B96E
:1015E00011780125002B05FA01F2D8BF002102DD98
:1015F000934205D32946FFF77DFF2046294697E011
:101600000338C2B2012A01D84C4A06E0202C01D08E
:10161000192C01D14A4A00E04A4A126802FB0332FF
:10162000CA401D287BD8DFE800F0575F4E337A7A36
:10163000212A7A7A7A7A7A7A7A7A7A3C450F187AF3
:10164000707A7A7A7A7A7A673F4B1A6003F5973321
:1016500040F2444203F5FA735FE03C4B1A6003F535
:10166000973340F2444203F5F87356E0384B1A6062
:1016700003F5973340F2444203F5F6734DE0354BE2
:101680001A6003F5973340F2444203F5F47344E0E3
:10169000314B1A6003F59F3340F2444203F5F07377
:1016A0003BE02E4B1A6003F59F3340F2444203F5B2
:1016B000EE7332E02A4B1A6003F59F3340F2444246
:1016C00003F5EC7329E0274B1A6003F59F3340F2D2
:1016D000444203F5EA7320E0234B1A6003F580339C
:1016E0004FF45172203318E0204B1A6003F5803319
:1016F0004FF451721C3310E01D4B1A60A3F5DB232D
:101700004FF45172A3F5F96307E01A4B1A60A3F581
:10171000DB234FF45172A3F2CC731A6038BD7F2BD8
:101720002046D4BF00210121FFF7E4FE204601211D
:10173000BDE83840FFF7FEBE6087FF1F08900340FA
:1017400008800B400880034010800340188003404D
:1017500020800340288003403080034038800340CD
:10176000408003404880034010900340189003409D
:1017700010800B4018800B4072B60C4B0C491A6855
:101780000C4B1B68096862B6490102D5322A88BF32
:101790000133C2F58C32482102F23F12B2FBF1F262
:1017A0004FF47A7000FB0320704700BF18E000E0A0
:1017B00004ED00E0A092FF1F38B50446FFF7DCFF00
:1017C000054624B938BD013C0AD005F57A75FFF706
:1017D000D3FF401BB0F57A7FF5D200F0E9FDF6E7C4
:1017E00038BDFFFF204B4FF4000210B51A604FF0D8
:1017F00080721A604FF000721A604FF080621A60B7
:101800004FF000621A60194B194A1A4C002048F632
:10181000FF7118605960282313609360136193610E
:1018200013629362136393630922226004F5805468
:10183000043420606160A360236144F8042C04F543
:10184000FE2420600C4801600C490B608B600C4B3F
:101850001A6000F06BFF4FF4C870FFF7ADFFBDE8F2
:10186000104000F0D7BB00BF08E100E00480034057
:101870000C8003400080034008800B400C800B402C
:1018800000800B40F0B50C4B0C4C1A7842F002056E
:1018900004EBC50682F00102706009481A700678F0
:1018A000002E0CBF8827C82786F0010647EA0141B1
:1018B000067044F83510F0BD0C93FF1F0080FF1F29
:1018C0008493FF1F431E032B10B510D872B6094A2C
:1018D00052F8230048B1416842F82310064A0188B3
:1018E00032F81340611A22F8131062B610BD0020BE
:1018F00010BD00BFFC92FF1F6C95FF1F013803282D
:101900000AD872B6054B53F82030002013B10130CD
:101910005B68FBE762B67047002070475093FF1F7B
:1019200010B572B60123174A1A4412F8012C120797
:101930001CD59900144A52F831402CB902EB4313DC
:1019400008305860114B09E041F0010152F8314074
:1019500064B902EBC103083058600D4B42F83130D6
:101960000C4B1A78013A1A7062B610BD0133052B80
:10197000D9D162B6074B00221A70BDE8104000F0C2
:10198000C7BB00BFE86400000080FF1F8800400064
:10199000C80040007A93FF1F431E032B30B532D896
:1019A000194A400140F01000104472B6174CE25C36
:1019B000032A09D8DFE802F01602180508300222CF
:1019C00013E00830042210E01148124A50F8234076
:1019D00014B940F8231002E052F82300416042F8A5
:1019E00023100FE0032200E00522E25410F0080F5C
:1019F00001F108030A8843600CBF8823C82343EA27
:101A00000243036062B630BD0080FF1FB892FF1F23
:101A10005093FF1F6093FF1F2DE9F84FAB4F3C78A9
:101A2000E4B214F0040F3D4619D0A94B1B78A3B1C2
:101A3000A84A117801F0FF0321B1013BDBB213701A
:101A400003B900BEA44A117801F0FF0329B1013B9C
:101A5000DBB213700BB900F087FC04233B7004F079
:101A6000080303F0FF02002B00F067829B4B9C4CA5
:101A70001A78D2B215094FEA920840F0E48104EBDB
:101A8000C803596854F83830C3F38303013B0C2B67
:101A900000F2D681DFE813F095019501D401D4015D
:101AA000D401D401D401D401B001D401D401D401B2
:101AB0000D008C4D0A684B688B486B6001218B4B85
:101AC00044F838302A60DFF85082017092B240F258
:101AD000816000238242C8F800302361A36117D8D7
:101AE000B2F5D06F80F01E81B2F5817F00F0CF801B
:101AF00006D8802A00F0BA80822A00F0BB8031E14B
:101B000040F202339A4200F0D180B2F5A06F1CE09F
:101B100042F22100824200F051810ED8B2F5086FE6
:101B200000F09E80B2F5106F40F01C81684B6C4E47
:101B3000AA781A7006F180090AE042F221218A424D
:101B400000F0088142F221339A4200F00F8109E14E
:101B5000336A1B0603D5706A083800F0D9FA0836D4
:101B60004E45F5D10026B146DFF8B0A156F80A007F
:101B700028B1D0F804B000F0CBFA5846F8E74AF89C
:101B800006005B4BDFF898A1F05056F80A0028B128
:101B9000D0F804B000F0BCFA5846F8E7554B4AF8C4
:101BA0000600F050544B23F81900544B19F8032049
:101BB000023A032A08D8DFE802F0020402040022F5
:101BC00000E0012203F8092009F10109B9F1040F2D
:101BD00006F10406C8D14A4B00221A7001269A4623
:101BE000484A494B3244334412F8012C9B0012F00E
:101BF000080F1A704FEA860925D000F06BFA38B149
:101C000004EB461308305860404B44F8393006E086
:101C10009AF8003044F8390001338AF8003000F0B7
:101C200059FA49F0010338B104EBC302083050609F
:101C30002E4A44F8332006E044F833009AF8003086
:101C400001338AF8003049F00202013649F00309F5
:101C50000023052E44F8323044F83930C0D186E0F4
:101C60001B4B2B4C1B7823700B4683E0284C2370B6
:101C700063707EE0AA88042A74D8254C92002370F1
:101C80006370244B9B5C9E0773D5217071E0AA881A
:101C900002F07F02042A65DC6B88002B62D1910080
:101CA0001C4A0A44117821F0020159E0AA8802F086
:101CB0007F02042A56DC6B88002B53D19100154A11
:101CC0000A44117841F002014AE000BF8020074039
:101CD0008393FF1F0D93FF1F9893FF1F90200740D2
:101CE0000080FF1F7093FF1F8493FF1FC8004000F8
:101CF000A892FF1F6093FF1F6C95FF1FB892FF1FF4
:101D00007A93FF1FE864000030C80110880040008B
:101D10007B93FF1FC0200740A492FF1FFC92FF1F70
:101D20005093FF1F6A88A9889F4B53F8084CA3F172
:101D30000C00BCB133F80C6C964209D133F80A6C34
:101D40008E4205D1120A032A0CBF2378038911E0C1
:101D50000C33EAE7954A1168954A1160A978954ACB
:101D6000117004E0944B0F221A7027E000231C46E8
:101D700000E00223EE88B34238BF1E46402E34BF37
:101D80003546402520462946FFF77CFD761B2C442E
:101D900003D1402D12D1354603E0402E34BF3546E5
:101DA000402520462946FFF76DFD761B2C4401D1C6
:101DB000402D03D1814AC8F8004016800122804B93
:101DC0003DE0804B1A8842F221039A4210D1002351
:101DD0007D4AC85C98540133072BF9D11368862BD0
:101DE00002D17A4B0F221A7000200146FFF74AFDFC
:101DF000774B44F8383023E0764E3568B5B1DFF8DC
:101E0000BC81B8F80090B9F1400F34BF4C46402473
:101E100028462146FFF736FDC4EB09039BB2A8F81C
:101E200000300BB9402C00D12B193360654B1A8858
:101E3000B2F5A06F04D100225A709A78664B1A70DE
:101E400001225F4B6CE004EBC806013D736802F0B1
:101E50000802A3F10800EDB202F0FF01002A36D01B
:101E600000F056F95D485E4B50F82520EAB1516804
:101E700040F8251002F108017160595D03290BD863
:101E8000DFE801F002040608032104E0022102E079
:101E9000052100E00421595516F0080F12880CBFE7
:101EA0008823C82343EA024342E05A5D032A07D845
:101EB000DFE802F040400204002206E0012204E0D4
:101EC00016F0080F0CBF022203225A5532E054F8D4
:101ED0003820120C23F8082C22B3DFF834E123F861
:101EE000061C43F8041C5EF825303E4913B94EF831
:101EF000250002E051F8253058603B4B41F82500A1
:101F000033F815100A4423F8152000F0E3F810B157
:101F10000830706006E0354B44F838001A7801321A
:101F20001A7007E02A4B324A16F0080F08BF134612
:101F300044F8383008233B7070E5E0071FD520498E
:101F40002B482C4C02230B702B4B1A702B4B186018
:101F500098602B48D8601A619A615C60164B0D201E
:101F600018702848FF2303702B700274264A1370E0
:101F7000264B9F221A7001230B70BDE8F88F2106B3
:101F800004D50D4B0D221A7080232B70A20705D5A6
:101F90001C4B1A78D2B21A7002232B70E30644BF8E
:101FA00010232B70BDE8F88FF8640000A092FF1F8B
:101FB0007C95FF1FA893FF1FC02007407893FF1F49
:101FC000942007407093FF1F7495FF1F0D93FF1F10
:101FD000C8004000A492FF1F982007405093FF1FA5
:101FE000B892FF1FA892FF1F6C95FF1F7A93FF1FE7
:101FF00088004000BC92FF1F0C93FF1F0080FF1F52
:102000001093FF1F882007408C2007408420074042
:10201000FC92FF1F08B501F055FD00221A4B00216C
:10202000D15098180832882A4160F7D1174A1068B1
:1020300040F48020106002F528326832C3F3072094
:102040001070C3F307401B0E10751376FF2302F8C0
:102050001C3C02F8143C02F88C3C012302F8083CBA
:1020600082F8641002F8183C094B70226FF450712A
:102070001A700B444FF400721A6003F1C04303F569
:10208000C82310221A7008BD0080FF1F348004404E
:1020900049E400E000F0A0B800F05CB800F080B8BF
:1020A00000F034B900F0A6B8084600F023B908469D
:1020B000114600F0B7B87047044B00221A714FF474
:1020C0007A711A73024A99601A6070478893FF1FE9
:1020D000A863000072B60C4A1168B1FA81F30B2BA9
:1020E00002D962B6002070474FF00040D84021EA84
:1020F0000001116062B6054948225343C818002206
:10210000CA504260704700BF6487FF1F0084FF1FF2
:102110000C4B4822C31AB3FBF2F30B2B11D80A4A1B
:10212000127822B1094A12780AB1FFF7F9BB72B6E8
:10213000074A4FF0004121FA03F311681943116077
:1021400062B670470084FF1F7A93FF1F8393FF1FBF
:102150006487FF1F10B5104C23686BB1206842885C
:10216000531C0244147A0288934212D3FFF7D0FF23
:10217000094B00221A600DE0084B1B7813B94FF091
:10218000FF3010BD0320FFF79DFB20600028E5D144
:10219000F5E74380204610BDA493FF1F8393FF1FE4
:1021A00010B50B4C236813B123686BB902E0094BDF
:1021B0001B7813B94FF0FF3010BD0320FFF782FBEF
:1021C00020600028F0D1F5E75A881344187A10BD32
:1021D000A493FF1F8393FF1F044B9888044B1B6835
:1021E0001BB11A885B88D31A184470476C95FF1F7F
:1021F000A493FF1F10B5094B1B786BB1084C2068E6
:1022000018B1FFF785FF002323600320FFF75AFB77
:1022100010B1FFF77DFFF8E710BD00BF8393FF1FEC
:10222000A493FF1F2DE9F8432D4E012307460C46CA
:102230003370002C4FD02B4D2B68A9462BBB48F692
:102240000148294B1B7803F0FF020BB9327015E0EF
:102250000420FFF753FB072808D801233370FFF74A
:1022600039FFC9F8000080B91D4B1870B8F101089A
:102270001E4B01D01A782AB101221A704FF0FF309C
:10228000BDE8F88300F094F8DBE72968174A48882E
:1022900000231370C0F14002944238BF224600F17F
:1022A000080C10448C444880A41A934204D0F85C73
:1022B0000CF803000133F8E71F444B883F2B06D985
:1022C00040230B800420FFF767FB00232B60084BA3
:1022D00005221A70ADE734702046BDE8F88300BFD0
:1022E0009993FF1F9C93FF1F8393FF1FA093FF1FD2
:1022F0009893FF1F07B502AB012103F8010D1846A3
:10230000FFF790FF03B05DF804FBFFFF2DE9F041FC
:10231000114B1B78F3B1114E114B3468114D01274D
:102320001F7098464CB1002763882F7004202380CB
:102330002146FFF731FB376009E0FFF7CBFE01468E
:1023400020B104202C70FFF727FB00E02F70002342
:1023500088F80030BDE8F0818393FF1F9C93FF1F36
:102360009993FF1F9893FF1F38B50E4B1B7803F00E
:10237000FF05ABB90C4C216831B14B880B800420B0
:10238000FFF70AFB256038BDFFF7A4FE014620B128
:102390000420BDE83840FFF7FFBA044B01221A7051
:1023A00038BD00BF9993FF1F9C93FF1F9893FF1F99
:1023B00010B50E4C2378BBB901232370FFF70CFF37
:1023C00008B1FFF778FE00F0C1FC08B100F08AF810
:1023D00001F01AF808B100F00FF901F0A7FA08B1FE
:1023E00000F094F90023237010BD00BFA993FF1FD4
:1023F00008B50368C9B21B68984708BD08B50368EB
:10240000C9B21B68984708BD08B50368C9B21B6804
:10241000984708BD08B50368C9B21B68984708BD4E
:10242000034800EB5100B0FBF1F000F049BA00BFE7
:102430000044950810B5064800EB51001446B0FB67
:10244000F1F000F03DFA2046BDE8104000F09CBAE3
:102450000044950800F0C2BA084600F0F3BA0846F6
:1024600000F042BB0846114600F008BB08B508461C
:1024700000F060FB003018BF012008BD08B5084619
:1024800000F07AFB003018BF012008BD00F05EBCF0
:1024900000F096BC00F06ABC00F03CBC00F0A8BCA8
:1024A00000F042BC08B5084600F08CFB012008BDD6
:1024B00008B5084600F086FB012008BD10B50846A7
:1024C0001446114600F0C8FB204610BD38B508463A
:1024D0000D4603F09DFC04462146284600F0BCFB57
:1024E000204638BD7047FFFF044B00221A714FF49D
:1024F0007A711A73024A99601A607047AC93FF1F91
:10250000D063000008B50368C9B21B68984708BDCE
:1025100008B50368C9B21B68984708BD08B50368C9
:10252000C9B21B68984708BD08B50368C9B21B68E3
:10253000984708BD034800EB5100B0FBF1F000F0F4
:10254000FFBC00BF0044950810B5064800EB5100E1
:102550001446B0FBF1F000F0F3FC2046BDE810405B
:1025600000F052BD0044950800F078BD084600F028
:10257000CDBD084600F01CBE0846114600F0E2BD85
:1025800008B5084600F03CFE003018BF012008BD29
:1025900008B5084600F056FE003018BF012008BDFF
:1025A00000F032BF00F06ABF00F03EBF00F010BF85
:1025B00000F07CBF00F016BF08B5084600F060FED2
:1025C000012008BD08B5084600F05AFE012008BDEC
:1025D00010B508461446114600F09CFE204610BD7A
:1025E00038B508460D4603F013FC0446214628463C
:1025F00000F090FE204638BD7047FFFF044B0022DC
:102600001A714FF47A711A73024A99601A6070470E
:10261000BC93FF1F3064000008B50368C9B21B6893
:10262000984708BD08B50368C9B21B68984708BD3C
:1026300008B50368C9B21B68984708BD08B50368A8
:10264000C9B21B68984708BD034800EB5100B0FBB6
:10265000F1F000F0D3BF00BF00A24A0410B5064855
:1026600000EB51001446B0FBF1F000F0C7FF20462C
:10267000BDE8104001F004B800A24A0401F02AB8F5
:10268000084601F05BB8084601F09CB808461146C0
:1026900001F070B808B5084601F096F8003018BF90
:1026A000012008BD08B5084601F0B0F8003018BF99
:1026B000012008BD01F03AB901F072B901F046B944
:1026C00001F018B901F084B901F01EB908B5084647
:1026D00001F0BAF8012008BD08B5084601F0B4F8C9
:1026E000012008BD10B508461446114601F0F6F861
:1026F000204610BD38B508460D4603F089FB044658
:102700002146284601F0EAF8204638BD7047FFFF11
:10271000044B00221A714FF47A711A73024A9960BD
:102720001A607047CC93FF1F9064000010B5204BD7
:102730002048214960221A70E1225A701F4B204A1A
:102740001C78204B082C01D1012402E00A2C03D173
:1027500019240460132005E00C2C0CBF15243D2423
:1027600004601220086014601860174B17491B782A
:10277000174A03B101230B601360164B164A1978F0
:10278000164B012901D880210BE0042901D88421AE
:1027900007E0082901D8852103E0102994BF86218C
:1027A0008721116019600E4B01221A7010BD00BF05
:1027B0000040074008B003400CB003406887FF1F8B
:1027C00008B00B400CB00B40DD93FF1F20B003405E
:1027D00020B00B406987FF1F24B0034024B00B409A
:1027E000DC93FF1F084B1A6842F480521A60074BB3
:1027F0001A78074B0AB1802200E0C0221A70054BFC
:1028000080F30C00188070472C800440DD93FF1F7C
:1028100021C00C4000C00C40024B1A6801321A6003
:10282000704700BFA092FF1F08B50B4C23685803E8
:1028300001D5FFF7F1F82368590501D500F0FCFA3E
:1028400023681A0501D500F055FE2368DB04ECD59A
:1028500001F0D0F8E9E700BF3480044008B5FFF785
:10286000E3FFFFFF014B10221A8070470020054054
:102870007047FFFF024A13681844106018467047FB
:102880006C87FF1FEFF313839BB9EFF3108098B9A8
:10289000EFF3058323B10F2B04D9084A985C01E0BC
:1028A0004FF48070EFF311833BB1834238BF184679
:1028B00070474FF0FF30704718467047F0E300E074
:1028C000234B1A6842F480621A60224A0023137074
:1028D000214A1370214A1370214A1370214A137040
:1028E000214B1B782BB1152B07D140F213321F4B14
:1028F00002E01F4B40F213321A601E4B1B78012B73
:1029000005D0052B07D14FF451721B4B02E01B4B36
:102910004FF451721A601A4BC0F344321A70C0F36C
:1029200047125A700221042200F01F0098729A7018
:10293000D9745A7588221A743C22DA70114B4022DD
:102940006FF44A711A700B444FF400521A607047CA
:10295000348004406794FF1FE593FF1F7094FF1FAE
:102960006894FF1FE493FF1F2694FF1F18C00440C4
:1029700040A004407087FF1F1CC0044044A00440D6
:1029800000A006402DE400E0134A937800F0030114
:1029900003F0EC030B43410748BF43F0100393706F
:1029A00000F00F03042B0C4903D18B7943F0400353
:1029B0008B715379C20603F0EF03074A48BF43F017
:1029C000100353719379810603F0EF0348BF43F07E
:1029D00010039371704700BF00A0064008B5114B6B
:1029E0001B685B0500D408BD0F4B1A7802F0FF038B
:1029F00012B1FFF7DDFCF7E70C4A4FF4005111600C
:102A00000B4A0C49D37040F203120A604A600A4A2A
:102A100013700A4A13700A4B1B680BB101221A701B
:102A200008BD00BF34800440E493FF1F84E100E050
:102A300000A0064040A004406794FF1FE593FF1FDD
:102A4000E093FF1F38B50446094B1B7803F0FF05E0
:102A5000002BF9D120460121FEF76CFD20462946C6
:102A6000FEF748FD034B53F83420034B1A6038BD82
:102A7000E493FF1F906200006C94FF1F10B509B132
:102A800040F08000144A13789842144622D0134A2A
:102A9000126852051DD503F07F03012B04D0052BCE
:102AA00005D100220E4B01E00E4B00221A600029D6
:102AB00000F07F020CBF44236023012A05D0052AC1
:102AC00007D143F44073064A02E0064A43F44073D8
:102AD0001360207010BD00BF7087FF1F348004405A
:102AE0001CC0044044A004400E4A1378984218D0F9
:102AF0000D490968490513D52BB1152B05D10B4B91
:102B00000021196001E00A490B6028B1152807D19E
:102B100040F21331054B02E0054B40F213311960CE
:102B2000107070472694FF1F3480044018C0044082
:102B300040A004400D4A38B5146814F480624FF088
:102B4000000410D021280A4D0AD80A4A012152F85F
:102B500030302B60FEF7EEFC2B681C70012038BD76
:102B60002C60204638BD104638BD00BF348004407C
:102B7000E093FF1F906200000E4B1B6813F480630C
:102B800016D012280C4B03D140F202310B4A04E05C
:102B9000142809D10A4A40F2023111605A7B42F0EE
:102BA00001025A73012070475A7B02F0FE025A73E9
:102BB000002070473480044000A006400CA0044070
:102BC00014C00440F8B51D4B1B685A05064633D5A2
:102BD0001B4B1B680BB101221A701A4B1C78013475
:102BE000402C1F4628BF0024174D2B78A34218D134
:102BF000FFF748FE40280FDC144A13791B06F3D573
:102C00002B7813490133402B28BF0023C95CDBB26A
:102C1000C9B2D1712B70E7E7FF28E5DDFFF7C8FBEC
:102C2000E2E70B4BF6B21E550A4B01221A70074B16
:102C3000E4B2BC223C70DA70F8BD00BF34800440BE
:102C40006C94FF1F7094FF1F6894FF1F00A0064044
:102C5000E693FF1FE493FF1F274B1B685A052DE9DE
:102C6000F04707468A4644D5244B1B680BB1012226
:102C70001A703D4607EB0A039D4237D2DFF8908079
:102C80001F4E98F8004096F800900134402C28BF61
:102C900000245FFA89F9A1451DD11A4BBC22DA70D4
:102CA000FFF7F0FD40280FDC164A13791B060FD5FD
:102CB000337815490133402B28BF0023C95CDBB2B0
:102CC000C9B2D171337003E0FF2801DDFFF770FB5B
:102CD00033784B45E4D00C4B15F8012B1A550B4BB0
:102CE0000122E4B21A7088F80040C3E7054BBC2209
:102CF000DA70BDE8F08700BF348004406C94FF1F99
:102D00006894FF1F00A00640E693FF1FE493FF1F97
:102D10007094FF1F08B5034B1B7813B1FFF748FBF6
:102D2000F9E708BDE493FF1F064A074B1B781078AC
:102D3000DBB2C0B283422CBF3F3000F1FF30C01A7B
:102D4000704700BF6894FF1F7094FF1F054B1878F1
:102D5000054B1B78C0B2DBB2984238BF4030C01A76
:102D6000704700BF6794FF1FE593FF1F10B5104B1E
:102D700010491A780B78D2B2DBB29A4214D00133E0
:102D8000402B28BF00230C48DCB2C05C0C700B4900
:102D90000968C0B251B19A4238BF4032D31A1A2BD7
:102DA00004DC00230B7010BD4FF0FF3010BD00BFDE
:102DB0006794FF1FE593FF1F2794FF1FE093FF1FFA
:102DC000084B1A78084B1B78DBB29A4207D00133C4
:102DD000402B28BF0023054AD05CC0B270474FF09B
:102DE000FF3070476794FF1FE593FF1F2794FF1F75
:102DF0000C4B1B685B0514D50B4BDA7802F0CB0249
:102E0000DA7040225A74DA7842F03402DA70074BF2
:102E10001A78074BD2B21A70064B1B680BB100220E
:102E20001A7070473480044000A00640E593FF1FED
:102E30006794FF1FE093FF1F30B5374B1A7912F0EC
:102E4000300F31D072B69A7D02F0FF0022B9DA79E4
:102E500040225A7462B627E062B6304A304913788D
:102E60000978DBB2C9B214462B4AD5795A1C402ADC
:102E700028BF00228A42EDB202D02A4B9D5413464D
:102E8000421E12F0FF00EFD1DAB22270264A126819
:102E900052B18B4236BFC1F14001C1EB03035B1855
:102EA000272BC4BF012313701B4BD978C9B20C0662
:102EB00020D51B7918061DD51C4B1D4A1D7813788B
:102EC000EDB2DBB21046AB420CD0134A0133402BBB
:102ED0001479184C28BF0023E45CE4B2D471127D4D
:102EE000072AF0D9DBB203700B4B1A79120644BFE4
:102EF0007C22DA704B060ED5074B1A7912F0400F80
:102F0000194608D00C4B00221A700C4B1B6803B1F9
:102F10001A703C23CB7030BD00A006406794FF1FA1
:102F2000E593FF1F2794FF1FE093FF1F7094FF1F7F
:102F30006894FF1FE693FF1FE493FF1F6C94FF1F2D
:102F4000234B1A6842F400621A60224A002313706D
:102F5000214A1370214A1370214A1370214A1370B9
:102F6000214B1B78092B05D01A2B07D140F21332C5
:102F70001E4B02E01E4B40F213321A601D4B1B78B1
:102F80000A2B05D01F2B07D14FF451721A4B02E0C8
:102F90001A4B4FF451721A60194BC0F344321A7035
:102FA000C0F347125A7000F01F00042202219872E9
:102FB0009A70D9745A7588221A743C22DA70114BAF
:102FC00040221A70A3F22B334FF400421A6070476C
:102FD00034800440E294FF1F7994FF1FE894FF1FA0
:102FE000E394FF1F7894FF1F7187FF1F04D00440F4
:102FF0000CB004407287FF1F00D0044010B00440A2
:1030000000B006402FE400E0134A937800F003017B
:1030100003F0EC030B43410748BF43F010039370E8
:1030200000F00F03042B0C4903D18B7943F04003CC
:103030008B715379C20603F0EF03074A48BF43F090
:10304000100353719379810603F0EF0348BF43F0F7
:1030500010039371704700BF00B0064008B51E4BC7
:103060001B681B0500D408BD1C4B1B7803F0FF0236
:1030700013B1FFF79DF9F7E7194B4FF400411960C1
:10308000184BDA70184B1B78092B05D01A2B07D177
:1030900040F20312154B02E0154B40F203121A6086
:1030A000144B1B7803F07F030A2B05D01F2B07D18D
:1030B00040F20312104B02E0104B40F203121A6070
:1030C0000F4A002313700F4A13700F4B1B680BB18C
:1030D00001221A7008BD00BF348004407894FF1F9D
:1030E00084E100E000B006407187FF1F04D0044077
:1030F0000CB004407287FF1F00D0044010B00440A1
:10310000E294FF1F7994FF1F7494FF1F38B50446A3
:10311000094B1B7803F0FF05002BF9D12046012154
:10312000FEF708FA20462946FEF7E4F9034B53F868
:103130003420034B1A6038BD7894FF1F9062000062
:10314000E494FF1F10B509B140F08000144A1378D1
:103150009842144622D0134A126812051DD503F076
:103160007F030A2B04D01F2B05D100220E4B01E058
:103170000E4B00221A60002900F07F020CBF44238E
:1031800060230A2A05D01F2A07D143F44073064A58
:1031900002E0064A43F440731360207010BD00BF84
:1031A0007287FF1F3480044000D0044010B00440F8
:1031B0000F4A137898421AD00E490968090515D5A7
:1031C000092B04D01A2B05D100210B4B01E00B4B2E
:1031D00000211960092805D01A2807D140F21331BF
:1031E000054B02E0054B40F2133119601070704737
:1031F0007187FF1F3480044004D004400CB00440A9
:103200000D4A38B5146814F400624FF0000410D071
:1032100021280A4D0AD80A4A012152F830302B6081
:10322000FEF788F92B681C70012038BD2C60204601
:1032300038BD104638BD00BF348004407494FF1F71
:10324000906200000B4B1B6813F4006310D017282A
:10325000094B09D1094A40F2023111605A7B42F010
:1032600001025A73012070475A7B02F0FE025A7322
:10327000002070473480044000B0064008B004408D
:10328000F8B51D4B1B681A05064633D51B4B1B684A
:103290000BB101221A701A4B1C780134282C1F46DE
:1032A00028BF0024174D2B78A34218D1FFF7EAFA64
:1032B00040280FDC144A13791B06F3D52B781349E9
:1032C0000133282B28BF0023C95CDBB2C9B2D171FE
:1032D0002B70E7E7FF28E5DDFFF76AF8E2E70B4B25
:1032E000F6B21E550A4B01221A70074BE4B2BC22FB
:1032F0003C70DA70F8BD00BF34800440E494FF1FD6
:10330000E894FF1FE394FF1F00B006407A94FF1F6C
:103310007894FF1F274B1B681A052DE9F0470746D5
:103320008A4644D5244B1B680BB101221A703D46D6
:1033300007EB0A039D4237D2DFF890801F4E98F8C2
:10334000004096F800900134282C28BF00245FFA32
:1033500089F9A1451DD11A4BBC22DA70FFF792FA08
:1033600040280FDC164A13791B060FD53378154910
:103370000133282B28BF0023C95CDBB2C9B2D1714D
:10338000337003E0FF2801DDFFF712F833784B4577
:10339000E4D00C4B15F8012B1A550B4B0122E4B26B
:1033A0001A7088F80040C3E7054BBC22DA70BDE80C
:1033B000F08700BF34800440E494FF1FE394FF1FB4
:1033C00000B006407A94FF1F7894FF1FE894FF1F17
:1033D00008B5034B1B7813B1FEF7EAFFF9E708BD08
:1033E0007894FF1F064A074B1B781078DBB2C0B2F7
:1033F00083422CBF273000F1FF30C01A704700BF56
:10340000E394FF1FE894FF1F054B1878054B1B78CA
:10341000C0B2DBB2984238BF4030C01A704700BF1C
:10342000E294FF1F7994FF1F10B5104B10491A78D2
:103430000B78D2B2DBB29A4214D00133402B28BFB2
:1034400000230C48DCB2C05C0C700B490968C0B2A8
:1034500051B19A4238BF4032D31A1A2B04DC0023F0
:103460000B7010BD4FF0FF3010BD00BFE294FF1F86
:103470007994FF1FA294FF1F7494FF1F084B1A78C2
:10348000084B1B78DBB29A4207D00133402B28BF90
:103490000023054AD05CC0B270474FF0FF30704740
:1034A000E294FF1F7994FF1FA294FF1F0C4B1B682F
:1034B0001B0514D50B4BDA7802F0CB02DA704022F0
:1034C0005A74DA7842F03402DA70074B1A78074BF4
:1034D000D2B21A70064B1B680BB100221A707047EB
:1034E0003480044000B006407994FF1FE294FF1F2F
:1034F0007494FF1F30B5374B1A7912F0300F31D06A
:1035000072B69A7D02F0FF0022B9DA7940225A742D
:1035100062B627E062B6304A304913780978DBB2E8
:10352000C9B214462B4AD5795A1C402A28BF00221A
:103530008A42EDB202D02A4B9D541346421E12F02D
:10354000FF00EFD1DAB22270264A126852B18B42E4
:1035500036BFC1F14001C1EB03035B18272BC4BF89
:10356000012313701B4BD978C9B20C0620D51B79E7
:1035700018061DD51C4B1D4A1D781378EDB2DBB221
:103580001046AB420CD0134A0133282B1479184C47
:1035900028BF0023E45CE4B2D471127D072AF0D97D
:1035A000DBB203700B4B1A79120644BF7C22DA702F
:1035B0004B060ED5074B1A7912F0400F194608D06A
:1035C0000C4B00221A700C4B1B6803B11A703C2381
:1035D000CB7030BD00B00640E294FF1F7994FF1F0E
:1035E000A294FF1F7494FF1FE894FF1FE394FF1F32
:1035F0007A94FF1F7894FF1FE494FF1F174B1A68FB
:1036000042F480521A60164A00231370154A137050
:10361000154A1370154A1370154A1370154A40F273
:10362000133111604FF451715160134AC0F34431AA
:103630001170C0F3471100F01F0051709072937029
:1036400013742C23D3700D4B40226FF44B711A70FE
:103650000B444FF400321A60704700BF34800440BE
:103660005A95FF1FF194FF1F6095FF1F5B95FF1F89
:10367000F094FF1F08C0044000C0064031E400E0A1
:10368000134A937800F0030103F0EC030B43410766
:1036900048BF43F01003937000F00F03042B0C4954
:1036A00003D18B7943F040038B715379C20603F049
:1036B000EF03074A48BF43F0100353719379810623
:1036C00003F0EF0348BF43F010039371704700BF4E
:1036D00000C0064008B5114B1B68DB0400D408BDD0
:1036E0000F4B1A7802F0FF0312B1FEF761FEF7E705
:1036F0000C4A4FF4003111600B4A0C49D37040F270
:1037000003120A604A600A4A13700A4A13700A4B8D
:103710001B680BB101221A7008BD00BF3480044041
:10372000F094FF1F84E100E000C0064008C00440A0
:103730005A95FF1FF194FF1FEC94FF1F38B5044604
:10374000094B1B7803F0FF05002BF9D1204601211E
:10375000FDF7F0FE20462946FDF7CCFE034B53F85B
:103760003420034B1A6038BDF094FF1F90620000B4
:103770005C95FF1F10B509B140F080000E4A137828
:10378000984217D00D4C2468E40412D503F07F034F
:10379000082B02D10A4B00241C60002900F07F0393
:1037A0000CBF44216021082B03D1054B41F440712B
:1037B0001960107010BD00BF7387FF1F3480044074
:1037C0000CC004407047FFFF0D4A38B5146814F46C
:1037D00080524FF0000410D021280A4D0AD80A4A1E
:1037E000012152F830302B60FDF7A4FE2B681C70CD
:1037F000012038BD2C60204638BD104638BD00BFC2
:1038000034800440EC94FF1F906200000B4B1B6857
:1038100013F4805310D00E28094B09D1094A40F205
:10382000023111605A7B42F001025A730120704745
:103830005A7B02F0FE025A73002070473480044025
:1038400000C0064004C00440F8B51D4B1B68DA04F4
:10385000064633D51B4B1B680BB101221A701A4B5D
:103860001C780134282C1F4628BF0024174D2B78C4
:10387000A34218D1FFF706F840280FDC144A137949
:103880001B06F3D52B7813490133282B28BF0023BF
:10389000C95CDBB2C9B2D1712B70E7E7FF28E5DD67
:1038A000FEF786FDE2E70B4BF6B21E550A4B0122EE
:1038B0001A70074BE4B2AC223C70DA70F8BD00BF5E
:1038C000348004405C95FF1F6095FF1F5B95FF1FD0
:1038D00000C00640F294FF1FF094FF1F38B5044665
:1038E0004518AC4204D014F8010BFFF7ADFFF8E720
:1038F00038BDFFFF08B5034B1B7813B1FEF758FD29
:10390000F9E708BDF094FF1F064A074B1B781078B3
:10391000DBB2C0B283422CBF273000F1FF30C01AA7
:10392000704700BF5B95FF1F6095FF1F054B187820
:10393000054B1B78C0B2DBB2984238BF4030C01A8A
:10394000704700BF5A95FF1FF194FF1F10B5104B31
:1039500010491A780B78D2B2DBB29A4214D00133F4
:10396000402B28BF00230C48DCB2C05C0C700B4914
:103970000968C0B251B19A4238BF4032D31A1A2BEB
:1039800004DC00230B7010BD4FF0FF3010BD00BFF2
:103990005A95FF1FF194FF1F1A95FF1FEC94FF1F0C
:1039A000084B1A78084B1B78DBB29A4207D00133D8
:1039B000402B28BF0023054AD05CC0B270474FF0AF
:1039C000FF3070475A95FF1FF194FF1F1A95FF1F94
:1039D000054B1A78054BD2B21A70054B1B680BB118
:1039E00000221A70704700BFF194FF1F5A95FF1F05
:1039F000EC94FF1F10B5294B1A79920620D5284A5E
:103A0000D879137827490133402B097828BF002340
:103A10008B42C0B203D02449C854D9B21170234A92
:103A2000116869B1224A1278D2B2934236BFC2F10C
:103A30004002C2EB03039B18272BC4BF01230B706A
:103A4000164AD178C9B20C0616D51379180613D5C3
:103A5000184B17481C780378DBB29C4202D16C23C8
:103A6000D37009E00133282B28BF0023124CE45CFB
:103A7000DBB2E4B2D47103704B060ED5074B1A7952
:103A800012F0400F194608D00C4B00221A700C4B54
:103A90001B6803B11A702C23CB7010BD00C0064008
:103AA0005A95FF1FF194FF1F1A95FF1FEC94FF1FFB
:103AB0005B95FF1F6095FF1FF294FF1FF094FF1F9F
:103AC0005C95FF1F1FB572B6154B70221A70154A10
:103AD000412111700F2102F8011C80221A701A78FE
:103AE0001206FCD5104B186862B6104B984298BF6E
:103AF0000A2301AC98BF584321460A2200F01AF865
:103B00000023E15C0A4A29B102EB430001330A2B8E
:103B10004180F6D101335B00137004B010BD00BFCB
:103B20000000024007000240080002407F96980013
:103B3000FC87FF1F10B50023B0FBF2F402FB14005A
:103B4000092894BF30303730C0B2C85420460CB179
:103B50000133F1E7CA18547022469A4206DA885CAB
:103B6000CC5C8C54C8540132013BF6E7084610BDCA
:103B700081F0004102E000BF83F0004330B54FEA1E
:103B800041044FEA430594EA050F08BF90EA020F8B
:103B90001FBF54EA000C55EA020C7FEA645C7FEA1E
:103BA000655C00F0E2804FEA5454D4EB5555B8BF41
:103BB0006D420CDD2C4480EA020281EA030382EAB2
:103BC000000083EA010180EA020281EA0303362D44
:103BD00088BF30BD11F0004F4FEA01314FF4801C17
:103BE0004CEA113102D0404261EB410113F0004F29
:103BF0004FEA03334CEA133302D0524263EB4303E0
:103C000094EA050F00F0A780A4F10104D5F1200E7D
:103C10000DDB02FA0EFC22FA05F2801841F10001D8
:103C200003FA0EF2801843FA05F359410EE0A5F1AC
:103C300020050EF1200E012A03FA0EFC28BF4CF0DD
:103C4000020C43FA05F3C01851EBE37101F0004593
:103C500007D54FF0000EDCF1000C7EEB00006EEBA0
:103C60000101B1F5801F1BD3B1F5001F0CD349082A
:103C70005FEA30004FEA3C0C04F101044FEA445281
:103C800012F5800F80F09A80BCF1004F08BF5FEA08
:103C9000500C50F1000041EB045141EA050130BDE8
:103CA0005FEA4C0C404141EB010111F4801FA4F18B
:103CB0000104E9D191F0000F04BF01460020B1FAE0
:103CC00081F308BF2033A3F10B03B3F120020CDA18
:103CD0000C3208DD02F1140CC2F10C0201FA0CF0F6
:103CE00021FA02F10CE002F11402D8BFC2F1200C5B
:103CF00001FA02F120FA0CFCDCBF41EA0C01904011
:103D0000E41AA2BF01EB0451294330BD6FEA040459
:103D10001F3C1CDA0C340EDC04F11404C4F1200244
:103D200020FA04F001FA02F340EA030021FA04F356
:103D300045EA030130BDC4F10C04C4F1200220FAAD
:103D400002F001FA04F340EA0300294630BD21FAEB
:103D500004F0294630BD94F0000F83F4801306BFB1
:103D600081F480110134013D4EE77FEA645C18BFA5
:103D70007FEA655C29D094EA050F08BF90EA020F3C
:103D800005D054EA000C04BF1946104630BD91EA34
:103D9000030F1EBF0021002030BD5FEA545C05D137
:103DA0004000494128BF41F0004130BD14F5800476
:103DB0003CBF01F5801130BD01F0004545F0FE41EA
:103DC00041F470014FF0000030BD7FEA645C1ABF1F
:103DD000194610467FEA655C1CBF0B46024650EA56
:103DE000013406BF52EA033591EA030F41F4002182
:103DF00030BD00BF90F0000F04BF0021704730B508
:103E00004FF4806404F132044FF000054FF00001DC
:103E100050E700BF90F0000F04BF0021704730B59D
:103E20004FF4806404F1320410F0004548BF404272
:103E30004FF000013EE700BF42004FEAE2014FEAC7
:103E400031014FEA02701FBF12F07F4393F07F4FA2
:103E500081F06051704792F0000F14BF93F07F4FD4
:103E6000704730B54FF4607401F0004521F0004117
:103E700020E700BF50EA010208BF704730B54FF09D
:103E800000050AE050EA010208BF704730B511F0A2
:103E9000004502D5404261EB41014FF4806404F1DA
:103EA00032045FEA915C3FF4DCAE4FF003025FEA5C
:103EB000DC0C18BF03325FEADC0C18BF033202EBE4
:103EC000DC02C2F1200300FA03FC20FA02F001FA3E
:103ED00003FE40EA0E0021FA02F11444C1E600BFDD
:103EE00070B54FF0FF0C4CF4E06C1CEA11541DBF90
:103EF0001CEA135594EA0C0F95EA0C0F00F0DEF85B
:103F00002C4481EA030621EA4C5123EA4C5350EA3F
:103F1000013518BF52EA033541F4801143F4801390
:103F200038D0A0FB02CE4FF00005E1FB02E506F021
:103F30000042E0FB03E54FF00006E1FB03569CF076
:103F4000000F18BF4EF0010EA4F1FF04B6F5007F7C
:103F500064F5407404D25FEA4E0E6D4146EB0606EE
:103F600042EAC62141EA55514FEAC52040EA5E5077
:103F70004FEACE2EB4F1FD0C88BFBCF5E06F1ED821
:103F8000BEF1004F08BF5FEA500E50F1000041EB58
:103F9000045170BD06F0004646EA010140EA020005
:103FA00081EA0301B4EB5C04C2BFD4EB0C0541EA27
:103FB000045170BD41F480114FF0000E013C00F33C
:103FC000AB8014F1360FDEBF002001F0004170BD60
:103FD000C4F10004203C35DA0C341BDC04F1140479
:103FE000C4F1200500FA05F320FA04F001FA05F205
:103FF00040EA020001F0004221F0004110EBD370D2
:1040000021FA04F642EB06015EEA430E08BF20EAFD
:10401000D37070BDC4F10C04C4F1200500FA04F3A0
:1040200020FA05F001FA04F240EA020001F0004132
:1040300010EBD37041F100015EEA430E08BF20EAA5
:10404000D37070BDC4F1200500FA05F24EEA020EED
:1040500020FA04F301FA05F243EA020321FA04F01C
:1040600001F0004121FA04F220EA020000EBD370D3
:104070005EEA430E08BF20EAD37070BD94F0000FD3
:104080000FD101F00046400041EB010111F4801F07
:1040900008BF013CF7D041EA060195F0000F18BFB8
:1040A000704703F00046520043EB030313F4801FF4
:1040B00008BF013DF7D043EA0603704794EA0C0FAE
:1040C0000CEA135518BF95EA0C0F0CD050EA4106C4
:1040D00018BF52EA4306D1D181EA030101F0004141
:1040E0004FF0000070BD50EA410606BF1046194669
:1040F00052EA430619D094EA0C0F02D150EA013675
:1041000013D195EA0C0F05D152EA03361CBF1046B5
:1041100019460AD181EA030101F0004141F0FE4154
:1041200041F470014FF0000070BD41F0FE4141F4D8
:10413000780170BD70B54FF0FF0C4CF4E06C1CEAD8
:1041400011541DBF1CEA135594EA0C0F95EA0C0F8D
:1041500000F0A7F8A4EB050481EA030E52EA033548
:104160004FEA013100F088804FEA03334FF0805569
:1041700045EA131343EA12634FEA022245EA111596
:1041800045EA10654FEA00260EF000419D4208BF47
:10419000964244F1FD0404F5407402D25B084FEAF4
:1041A0003202B61A65EB03055B084FEA32024FF4A0
:1041B00080104FF4002CB6EB020E75EB030E22BFFD
:1041C000B61A754640EA0C005B084FEA3202B6EBBD
:1041D000020E75EB030E22BFB61A754640EA5C006C
:1041E0005B084FEA3202B6EB020E75EB030E22BFFC
:1041F000B61A754640EA9C005B084FEA3202B6EBFD
:10420000020E75EB030E22BFB61A754640EADC00BB
:1042100055EA060E18D04FEA051545EA16754FEA1D
:1042200006164FEAC30343EA52734FEAC2025FEA3B
:104230001C1CC0D111F4801F0BD141EA00014FF0CA
:1042400000004FF0004CB6E711F4801F04BF01439B
:104250000020B4F1FD0C88BFBCF5E06F3FF6AFAEB7
:10426000B5EB030C04BFB6EB020C5FEA500C50F147
:10427000000041EB045170BD0EF0004E4EEA1131CA
:1042800014EB5C04C2BFD4EB0C0541EA045170BDD1
:1042900041F480114FF0000E013C90E645EA060E15
:1042A0008DE60CEA135594EA0C0F08BF95EA0C0F43
:1042B0003FF43BAF94EA0C0F0AD150EA01347FF48B
:1042C00034AF95EA0C0F7FF425AF104619462CE762
:1042D00095EA0C0F06D152EA03353FF4FDAE1046C5
:1042E000194622E750EA410618BF52EA43067FF416
:1042F000C5AE50EA41047FF40DAF52EA43057FF4A6
:10430000EBAE12E74FEA410212F5001215D211D5B9
:104310006FF47873B3EB625212D94FEAC12343F0C2
:10432000004343EA505311F0004F23FA02F018BF44
:10433000404270474FF00000704750EA013005D10D
:1043400011F0004008BF6FF0004070474FF00000D0
:10435000704700BF4FEA4102B2F1E04324BFB3F51A
:10436000001CDCF1FE5C0DD901F0004C4FEAC002EC
:104370004CEA5070B2F1004F40EB830008BF20F0D0
:104380000100704711F0804F21D113F13872BCBF8A
:1043900001F00040704741F480114FEA5252C2F1DF
:1043A0001802C2F1200C10FA0CF320FA02F018BF28
:1043B00040F001004FEAC1234FEAD32303FA0CFC7B
:1043C00040EA0C0023FA02F34FEA4303CCE77FEA0A
:1043D000625307D150EA01331EBF4FF0FE4040F454
:1043E0004000704701F0004040F0FE4040F4000003
:1043F000704700BF80F0004002E000BF81F0004144
:1044000042001FBF5FEA410392EA030F7FEA226C7A
:104410007FEA236C6AD04FEA1262D2EB1363C1BF0A
:10442000D218414048404140B8BF5B42192B88BF79
:10443000704710F0004F40F4000020F07F4018BF9C
:10444000404211F0004F41F4000121F07F4118BFBC
:10445000494292EA030F3FD0A2F1010241FA03FC64
:1044600010EB0C00C3F1200301FA03F100F000434C
:1044700002D5494260EB4000B0F5000F13D3B0F114
:10448000807F06D340084FEA310102F10102FE2A83
:1044900051D2B1F1004F40EBC25008BF20F00100F3
:1044A00040EA03007047490040EB000010F4000FA1
:1044B000A2F10102EDD1B0FA80FCACF1080CB2EB34
:1044C0000C0200FA0CF0AABF00EBC2505242184393
:1044D000BCBFD0401843704792F0000F81F4000138
:1044E00006BF80F400000132013BB5E74FEA41030B
:1044F0007FEA226C18BF7FEA236C21D092EA030F77
:1045000004D092F0000F08BF0846704790EA010FF0
:104510001CBF0020704712F07F4F04D1400028BF1D
:1045200040F00040704712F100723CBF00F50000FF
:10453000704700F0004343F0FE4040F40000704735
:104540007FEA226216BF08467FEA236301464202E1
:1045500006BF5FEA412390EA010F40F480007047F4
:104560004FF0000304E000BF10F0004348BF40429A
:104570005FEA000C08BF704743F0964301464FF0D6
:1045800000001CE050EA010208BF70474FF0000332
:104590000AE000BF50EA010208BF704711F0004373
:1045A00002D5404261EB41015FEA010C02BF844643
:1045B0000146002043F0B64308BFA3F18053A3F5A2
:1045C0000003BCFA8CF2083AA3EBC25310DB01FAE9
:1045D00002FC634400FA02FCC2F12002BCF1004F6D
:1045E00020FA02F243EB020008BF20F001007047FE
:1045F00002F1200201FA02FCC2F1200250EA4C0052
:1046000021FA02F243EB020008BF20EADC70704797
:104610004FF0FF0C1CEAD0521EBF1CEAD15392EAA5
:104620000C0F93EA0C0F6FD01A4480EA010C400281
:1046300018BF5FEA41211ED04FF0006343EA5010DB
:1046400043EA5111A0FB01310CF00040B1F5000F1D
:104650003EBF490041EAD3715B0040EA010062F1CC
:104660007F02FD2A1DD8B3F1004F40EBC25008BFB6
:1046700020F00100704790F0000F0CF0004C08BFD4
:1046800049024CEA502040EA51207F3AC2BFD2F1A1
:10469000FF0340EAC250704740F400004FF00003AF
:1046A000013A5DDC12F1190FDCBF00F000407047E9
:1046B000C2F10002410021FA02F1C2F1200200FA27
:1046C00002FC5FEA310040F1000053EA4C0308BFEE
:1046D00020EADC70704792F0000F00F0004C02BF3F
:1046E000400010F4000F013AF9D040EA0C0093F0BA
:1046F000000F01F0004C02BF490011F4000F013B14
:10470000F9D041EA0C018FE70CEAD15392EA0C0F81
:1047100018BF93EA0C0F0AD030F0004C18BF31F0EC
:10472000004CD8D180EA010000F00040704790F0C2
:10473000000F17BF90F0004F084691F0000F91F066
:10474000004F14D092EA0C0F01D142020FD193EA2C
:104750000C0F03D14B0218BF084608D180EA0100B4
:1047600000F0004040F0FE4040F40000704740F090
:10477000FE4040F4400070474FF0FF0C1CEAD0525E
:104780001EBF1CEAD15392EA0C0F93EA0C0F69D0BA
:10479000A2EB030280EA010C49024FEA402037D025
:1047A0004FF0805343EA111143EA10130CF000401C
:1047B0008B4238BF5B0042F17D024FF4000C8B420C
:1047C00024BF5B1A40EA0C00B3EB510F24BFA3EBEC
:1047D000510340EA5C00B3EB910F24BFA3EB9103BC
:1047E00040EA9C00B3EBD10F24BFA3EBD10340EA16
:1047F000DC001B0118BF5FEA1C1CE0D1FD2A3FF65C
:1048000050AF8B4240EBC25008BF20F00100704710
:104810000CF0004C4CEA50207F32C2BFD2F1FF03B3
:1048200040EAC250704740F400004FF00003013AE4
:1048300037E792F0000F00F0004C02BF400010F488
:10484000000F013AF9D040EA0C0093F0000F01F09C
:10485000004C02BF490011F4000F013BF9D041EABE
:104860000C0195E70CEAD15392EA0C0F08D14202F1
:104870007FF47DAF93EA0C0F7FF470AF084676E7C4
:1048800093EA0C0F04D14B023FF44CAF08466EE79D
:1048900030F0004C18BF31F0004CCAD130F000426B
:1048A0007FF45CAF31F000437FF43CAF5FE700BFC3
:1048B00070B5044610461E460D46FFF7BDFA10A31C
:1048C000D3E90023C4E90A01FFF70AFBFFF742FD21
:1048D0002562E06026630498FFF79CFA02460B46C7
:1048E00000204FF0804100F085F90022064BFFF7D1
:1048F00043F9C4E90E01204670BD00BFAFF300804C
:1049000000000060FB2109400000F03FAFF3008091
:104910002DE9F8430C460546284910461E46FFF788
:1049200077FE2649206080463046FFF771FE234916
:10493000606007460898FFF76BFE216BA060FFF7E9
:1049400067FEE6682061814631464046FFF714FF66
:104950003146804660613846FFF70EFF3146074614
:10496000A0614846FFF708FF39460646E061404629
:10497000FFF744FD31460446FFF740FD00F014F90F
:10498000394628604046FFF73BFD31460746FFF7B2
:1049900035FD00F009F93146A8603846FFF730FDD3
:1049A00000F002F9314668602046FFF729FD00F06B
:1049B000FBF8E8602846BDE8F88300BF00007042BD
:1049C000F8B51D4600230446164603710F46C8B2CB
:1049D0000121FCF7AFFDF0B20121FCF7ABFDE8B21D
:1049E0000121FCF7A7FD27616661A5612046F8BD9E
:1049F00070B5067904460D46BEB9002906DD007D76
:104A00000121FCF777FD207E314606E007D0007DCE
:104A10003146FCF76FFD207E0121FCF76BFD207C09
:104A200085EAE571A1EBE57116E0012E18D10029A8
:104A300005DD007D0021FCF7BBFD207E0BE08069D9
:104A4000C0B205D00021FCF7B3FD207D694203E030
:104A5000FCF7AEFD207D2946BDE87040FCF7A8BDFF
:104A600070BD10B58360029BC360039B0160426010
:104A7000036110BD8160C2600361704730B5054AB3
:104A80000C680568B4FBF2F31D4402FB1343056098
:104A90000B6030BD00CA9A3B4FF0FF3C06E000BF00
:104AA0004FF0010C02E000BF4FF0010C4DF804CDB7
:104AB0004FEA410C7FEA6C5C4FEA430C18BF7FEA77
:104AC0006C5C1BD001B050EA410C0CBF52EA430CA5
:104AD00091EA030F02BF90EA020F0020704710F125
:104AE000000F91EA030F58BF994208BF90422CBFB4
:104AF000D8176FEAE37040F0010070474FEA410CAD
:104B00007FEA6C5C02D150EA013C07D14FEA430CCA
:104B10007FEA6C5CD6D152EA033CD3D05DF8040B3B
:104B2000704700BF8446104662468C46194663466D
:104B300000E000BF01B5FFF7B7FF002848BF10F144
:104B4000000F01BD4DF808EDFFF7F4FF0CBF012089
:104B500000205DF808FB00BF4DF808EDFFF7EAFF05
:104B600034BF012000205DF808FB00BF4DF808EDC0
:104B7000FFF7E0FF94BF012000205DF808FB00BFB5
:104B80004DF808EDFFF7CEFF94BF012000205DF83F
:104B900008FB00BF4DF808EDFFF7C4FF34BF01204C
:104BA00000205DF808FB00BF4FEA4002B2F1FE4F63
:104BB0000FD34FF09E03B3EB12620DD94FEA0023DF
:104BC00043F0004310F0004F23FA02F018BF4042B8
:104BD00070474FF00000704712F1610F01D142029F
:104BE00005D110F0004008BF6FF0004070474FF053
:104BF000000070472DE9F04FDFF8B8A28BB01D46DA
:104C000080468946144600F073F99AF90030013362
:104C100006460F4604D02046294600F06FFF20B913
:104C2000304639460BB0BDE8F08F4046494600F0AB
:104C300065FF834600282CD1204629460022002308
:104C4000FFF780FF0028EBD0944B9AF900109448AE
:104C5000CDF820B000220126CDE906234B1CCDE97A
:104C60000289CDE90445009601900DD002290BD0B0
:104C7000684600F06BFF002800F09580089B1BB190
:104C800001F090F8089B0360DDE906010BB0BDE878
:104C9000F08F0022002340464946FFF753FFF8B14A
:104CA0002046294600220023FFF74CFF83460028B8
:104CB0004DD07B4A9AF900300192CDE9044501219B
:104CC000002200240025CDE90289CDE906450091A6
:104CD0000892002BCCD0714B0022CDE90623D3E7FC
:104CE0003046394600F004FF8346002860D0002299
:104CF000002330463946FFF725FF002890D0404674
:104D0000494600F0F5FE00288AD02046294600F0EA
:104D1000EFFE002884D09AF90030614A0192CDE973
:104D200004450421002200240025022BCDE902893C
:104D3000CDE906450091089200F08280684600F0B7
:104D400005FF00287CD0089B002B9DD098E72046CB
:104D5000294600F0CDFE00283FF462AF20462946E8
:104D600000220023FFF7F8FE00283FF459AF4C4B18
:104D70009AF80010CDF820B001228DE80C00CDE9A2
:104D80000289CDE904450022002934D10023CDE970
:104D90000623684600F0DAFE0028D4D101F002F8BC
:104DA00021230360CFE700F0FDFF2123036065E7C7
:104DB0004046494600F09CFE002898D020462946EF
:104DC00000F096FE002892D03046394600F096FE5C
:104DD000B8B9334B9AF8006008900122CDE90289F6
:104DE000CDE904458DE80C00002E2ED100240025CD
:104DF000CDE90645CDE72B4B0229CDE90623CDD0E1
:104E0000C7E7274A9AF90030CDF820B003218DE892
:104E10000600CDE90289CDE9044540464946002215
:104E2000F3B9214F4FF060460023CDE90667FFF745
:104E300093FE002840D19AF90030022B7FF47EAF18
:104E400000F0B0FF222303607DE70020002102462E
:104E50000B46FFF76FF9022ECDE906019ED098E7C9
:104E6000124F00260023CDE90667FFF775FE0028E4
:104E7000E1D000220E4B20462946FFF731F80446C8
:104E80000D4600F06BFE22462B46FFF75BFE002826
:104E9000D1D1044B0022CDE90623CCE70000F03F3E
:104EA000406500000000F0FFFFFFEF470000F07FCB
:104EB0000000E03F1288FF1F00220A4B20462946CF
:104EC000FFF70EF804460D4600F048FE22462B463A
:104ED000FFF738FE0028AED1034B4FF06042CDE91A
:104EE0000623A8E70000E03FFFFFEFC7FFFFFFFF3B
:104EF0002DE9F04F23F0004B91B089460F465BEA55
:104F00000201CDE9022314461D46804606462ED0F6
:104F1000634B29F0004A9A4522DC1FD0604B9B4529
:104F20001EDC77D0002F78DB0022049264BB5C4B40
:104F30009B4500F091805B4B9B4565D0B5F1804F60
:104F400000F0F783584B9D421ED1002F1CDB4046DA
:104F5000494611B0BDE8F04F00F006BD0028DDD095
:104F60000AF1404A0AF5801A5AEA060A04D14D4964
:104F7000002011B0BDE8F08F4C4811B0BDE8F04FF3
:104F800000F0E6BD002104914046494600F0ACFD2A
:104F9000E6B9BAF1000F04D0424B27F040429A42E2
:104FA00014D1002DC0F20584002FE2DA0AF1404A44
:104FB000DDF810B00AF5801A5BEA0A0B5ED0049A9D
:104FC000012AD6D101F100431946D2E7FB0F03F1C4
:104FD000FF3C049B53EA0C034ED0354B9B456DDDE3
:104FE00003F104739B4540F3EC83324B9A4540F345
:104FF0009A83002D40F39A8327A1D1E9000102464C
:105000000B46FEF76DFFB4E7002DC0F24884404622
:105010004946AEE7002C85D0A2E7274B9B4536DCFE
:10502000A3F154739B4540F38B834FEA2B5340F21B
:105030001342934240F34984C3F58663033324FA51
:1050400003F202FA03F3A3427FF46EAF02F001020F
:10505000C2F10202049269E70AF1404303F58013AA
:10506000334384D0134B9A4540F39B83002DC0F209
:105070005D83DDE902017CE74046494602460B4676
:10508000FEF77AFD02460B46FFF754F871E702235C
:1050900004934BE7AFF300809C7500883CE4377EB7
:1050A0000000F07F0000F03F0000E03F7865000066
:1050B0000000E041FFFFEF3FFFFF3F43BAF5801FD5
:1050C00080F2EB83AA4BCDF804C00022FEF708FF64
:1050D000DDF804C08A466FF034034FEA2A55A54A2A
:1050E000CAF3130AA5F2FF354AF07F541D449245D6
:1050F0000F9544F4401440F3CD839F4B9A4540F301
:10510000FA83DDF83CA000250AF1010ACDF83CA0A5
:10511000A4F580142B46994ACDF804C0DB000E9309
:105120001344D3E90067214632463B46CDE90A01E4
:10513000FEF722FD3246804689463B46DDE90A01FC
:10514000FEF71CFD02460B4600208D49FEF7F2FFDC
:10515000CDE90C01DDE90C2340464946FEF7C0FECF
:10516000CDE906016110DDE906AB41F0005101F522
:1051700000214B190021CDE908AB0891DDE908AB0E
:1051800000225046594614461D46FEF7A9FE024627
:105190000B4640464946FEF7EFFC324680468946BC
:1051A0003B4620462946FEF7E7FC02460B46DDE972
:1051B0000A01FEF7E1FC02460B4650465946FEF74F
:1051C0008FFE02460B4640464946FEF7D5FCDDE918
:1051D0000C23FEF785FE06460F46DDE90601024672
:1051E0000B46FEF77DFE02460B4604460D46FEF7D3
:1051F00077FE4FA3D3E900238046894620462946FF
:10520000FEF76EFE4CA3D3E90023FEF7B7FC22465F
:105210002B46FEF765FE4AA3D3E90023FEF7AEFC5A
:1052200022462B46FEF75CFE47A3D3E90023FEF798
:10523000A5FC22462B46FEF753FE45A3D3E90023E7
:10524000FEF79CFC22462B46FEF74AFE42A3D3E91A
:105250000023FEF793FC02460B4640464946FEF704
:105260003FFEDDE9062304460D4650465946FEF74B
:1052700085FC32463B46FEF733FE22462B46FEF7C0
:105280007DFC5246804689465B4650465946FEF7AD
:1052900027FE00223B4BCDE90A01FEF76FFC424698
:1052A0004B46FEF76BFC08980D46044622462B46FB
:1052B00050465946FEF714FE224682468B462B4640
:1052C00030463946FEF70CFE002206460F462046C1
:1052D00029462C4BFEF750FCDDE90A23FEF74CFC77
:1052E00002460B4640464946FEF746FCDDE90623EA
:1052F000FEF7F6FD02460B4630463946FEF73EFC09
:105300008046894642464B4650465946FEF736FC93
:10531000089813A3D3E9002304460D46FEF7E0FDE9
:1053200011A3D3E90023CDE90601204629462BE04D
:10533000EF4E454A287ECA3F65DBC9934A86CD3F7A
:1053400001411DA96074D13F4D268F515555D53F60
:10535000FFAB6FDBB66DDB3F033333333333E33FF8
:10536000000000E009C7EE3FF5015B14E02F3EBEF0
:10537000000040438E98030079B60B00686500007A
:105380000000F03F00000840FEF7AAFD5246064626
:105390000F465B4620462946FEF7EEFB02460B46CB
:1053A00040464946FEF7E8FB9FA3D3E90023FEF7FA
:1053B00097FD02460B4630463946FEF7DFFBDDF827
:1053C00038A0AB4B5344D3E90023FEF7D7FB064686
:1053D0000F980F46FEF71EFDA64B5344D3E900ABD2
:1053E00004460D4632463B46DDE90601FEF7C6FBA4
:1053F00052465B46FEF7C2FB22462B46FEF7BEFB3B
:10540000089822462B4680468946FEF7B5FB524651
:105410005B46FEF7B1FBDDE90623FEF7ADFB024676
:105420000B4630463946FEF7A7FBDDF804C082463E
:105430008B4604994B1E53EA0C030CBF8E4B8F4BCB
:105440000022CDE90823DDE90223CDE9042300236E
:105450000493DDE90445DDE902012B462246FEF70F
:105460008BFB42464B46FEF73BFD524606460F4637
:105470005B46DDE90201FEF733FD02460B4630468E
:105480003946FEF77BFB42464B4682468B4620461A
:105490002946FEF725FD06460F463B46504659462F
:1054A0003246FEF76BFB764B9942804689460D46A5
:1054B00040F34A8101F13F4303F5E003034340F029
:1054C000F6815BA3D3E9002350465946FEF756FB0D
:1054D0003246CDE902013B4640464946FEF74CFBC9
:1054E00002460B46DDE90201FFF754FB002840F0BD
:1054F000DE81CC464FEA2C53A3F2FE334FF48010EA
:1055000018412844C0F30A515E4AA1F2FF3342FA1F
:1055100003FEC1F58261C0F3130420EA0E030331D8
:1055200044F4801040FA01F1002D0491BCBF4942BF
:105530000491002230463946FEF71EFB06460F4610
:105540003246504659463B46FEF718FB049A120570
:105550000292002438A3D3E9002320460D46FEF72B
:10556000BFFC3246804689463B4620462946FEF728
:1055700003FB02460B4650465946FEF7FDFA30A3A0
:10558000D3E90023FEF7ACFC2FA3D3E900230646A2
:105590000F4620462946FEF7A3FC02460B4630463E
:1055A0003946FEF7EBFA06460F4632463B46404682
:1055B0004946FEF7E3FA42464B4604460D46FEF7DF
:1055C000DBFA02460B4630463946FEF7D5FA22464C
:1055D00082468B4620462B462946FEF781FC1CA3BB
:1055E000D3E9002306460F46FEF77AFC1AA3D3E957
:1055F0000023FEF7C1FA32463B46FEF771FC18A3C2
:10560000D3E90023FEF7BAFA32463B46FEF768FCC0
:1056100015A3D3E90023FEF7AFFA32463B46FEF767
:105620005FFC31E0AFF30080FD033ADC09C7EE3FD9
:10563000FE822B654715973C00000000432EE63F95
:10564000EF39FAFE422EE63F396CA80C615C20BEB1
:10565000D0A4BE726937663EF16BD2C541BDBB3E78
:105660002CDE25AF6A56113F93BDBE166CC1663F56
:1056700058650000486500000000F0BF0000F03FE2
:10568000FFFF8F40FFFF0F00A3A3D3E90023FEF726
:1056900075FA32463B46FEF723FC02460B4620468F
:1056A0002946FEF769FA06460F4632463B46204633
:1056B0002946FEF715FC00228046894630463946C9
:1056C0004FF08043FEF758FA02460B4640464946E3
:1056D000FEF730FD524606460F4620465B462946F9
:1056E000FEF7FEFB52465B46FEF748FA02460B46C3
:1056F00030463946FEF740FA22462B46FEF73CFA82
:1057000002460B4600209249FEF736FA029C0C44F2
:10571000B4F5801F0246C0F2F2802346DDE908019D
:10572000FEF7DEFB25E4002DFFF666AC002000212D
:105730001FE44046494642464B46FEF7D1FB18E47B
:1057400000210491FFF7F2BB824B21F0004C9C45F5
:1057500040F3CA8001F17D5303F53C1303F5505328
:10576000034310D132463B46CDF804C0FEF704FA9D
:1057700002460B4650465946FFF7F8F9DDF804C0DB
:1057800000283FF4B7AEDDE9080165A3D3E90023A3
:10579000FEF7A6FB62A3D3E90023FEF7A1FBFFF708
:1057A000E8BB002DC2DA039B029803F10041FFF72A
:1057B000E0BB02460B4600206549FEF7BBFCFFF745
:1057C000F3BB654B9A45AEDD614B9A453FF711AC93
:1057D00000225F4BCDF804C0FEF7CEF952A3D3E907
:1057E000002304460D46FEF77BFB51A3D3E90023BB
:1057F00006460F4620462946FEF772FB22468246A1
:105800008B462B4620462946FEF76AFB002280463F
:10581000894620462946514BFEF762FB02460B465D
:1058200045A1D1E90001FEF7A7F922462B46FEF774
:1058300057FB02460B4600204949FEF79DF90246F8
:105840000B4640464946FEF74BFB3DA3D3E90023F8
:10585000FEF746FB02460B4650465946FEF78CF9CA
:1058600004460D4622462B4630463946FEF786F959
:10587000002032463B4680468946FEF77DF90246C7
:105880000B4620462946FEF777F9DDF804C082462C
:105890008B46CEE500252B463DE400231DE4424621
:1058A0004B4600202A49FEF745FCFFF762BBDDE9C5
:1058B000080125A3D3E90023FEF712FB22A3D3E9B5
:1058C0000023FEF70DFBFFF754BB002C7FF45AAB0F
:1058D000C3F5826303334BFA03F202FA03F35B4529
:1058E00013D00494FFF727BB1D4B9C453FF702AE36
:1058F000049B02932DE64FF4802501230BE4049AC8
:1059000000F0BAF902460B4608E702F00102C2F1C4
:1059100002020492FFF70FBB3E5555555555C53F42
:1059200059F3F8C21F6EA501000000604715F73F4C
:1059300044DF5DF80BAE543E555555555555D53F92
:10594000FE822B654715F73F9C7500883CE4377E47
:105950000000F03FFFCB9040FEFFEF3F0000D03F44
:105960000000E03FAFF3008021F0004C2DE9F84348
:105970004FEA1C5CDFF86C814FEA0C5CC4450646BC
:105980000F460B46024600F08F8000296FDD0F1591
:1059900078D0A7F2FF37C3F31303F90743F480135A
:1059A00060D4D10F4FF0000C01EB43037F10520085
:1059B000654616204FF400116C189C424FEAD276CF
:1059C0004FEA420202DC1B1B65188C44013806EBCF
:1059D00043034FEA5101EFD1804620264FF00041AA
:1059E00009E023D0D40F013E4FEA510104EB4303F9
:1059F0004FEA42021ED0AB4201EB0804F1DD04F095
:105A00000049B9F1004F04EB010809D0A9465B1B1E
:105A1000944288BF03F1FF33121B08444D46E1E76F
:105A2000B8F1000FF2DB05F10109F0E79442E6D985
:105A30001D46D7E71A4304D0431C41D000F00103B0
:105A4000184446084FEA6C031CF0010F03F17F5322
:105A500003F5001318BF46F0004603EB075130462C
:105A6000BDE8F883D10F01EB4303520099E721F021
:105A70000043034322D051BB0F46D30A153F5205C2
:105A8000002BFAD013F480111DD15B00D80201F174
:105A90000101FAD5C1F10100C1F1200422FA04F498
:105AA000234307448A4074E702460B46FEF718FA80
:105AB00032463B46FEF762F8BDE8F883BDE8F8835E
:105AC0000CF1010CBEE7202401200021E6E702468C
:105AD0000B46FEF751F802460B46FEF72BFBBDE8DE
